{
  "contractName": "PassContract",
  "abi": [
    {
      "inputs": [
        {
          "internalType": "address",
          "name": "_xrpAddress",
          "type": "address"
        }
      ],
      "stateMutability": "nonpayable",
      "type": "constructor"
    },
    {
      "inputs": [
        {
          "internalType": "uint256",
          "name": "",
          "type": "uint256"
        }
      ],
      "name": "invalidatedTokens",
      "outputs": [
        {
          "internalType": "bool",
          "name": "",
          "type": "bool"
        }
      ],
      "stateMutability": "view",
      "type": "function",
      "constant": true
    },
    {
      "inputs": [],
      "name": "owneri",
      "outputs": [
        {
          "internalType": "address",
          "name": "",
          "type": "address"
        }
      ],
      "stateMutability": "view",
      "type": "function",
      "constant": true
    },
    {
      "inputs": [],
      "name": "signM",
      "outputs": [
        {
          "internalType": "bytes",
          "name": "",
          "type": "bytes"
        }
      ],
      "stateMutability": "view",
      "type": "function",
      "constant": true
    },
    {
      "inputs": [],
      "name": "signM2",
      "outputs": [
        {
          "internalType": "bytes32",
          "name": "",
          "type": "bytes32"
        }
      ],
      "stateMutability": "view",
      "type": "function",
      "constant": true
    },
    {
      "inputs": [],
      "name": "tkid",
      "outputs": [
        {
          "internalType": "uint256",
          "name": "",
          "type": "uint256"
        }
      ],
      "stateMutability": "view",
      "type": "function",
      "constant": true
    },
    {
      "inputs": [],
      "name": "xrpContract",
      "outputs": [
        {
          "internalType": "contract XclusiveRydePass",
          "name": "",
          "type": "address"
        }
      ],
      "stateMutability": "view",
      "type": "function",
      "constant": true
    },
    {
      "inputs": [
        {
          "internalType": "uint256",
          "name": "tokenId",
          "type": "uint256"
        },
        {
          "internalType": "uint256",
          "name": "amount",
          "type": "uint256"
        },
        {
          "internalType": "bytes",
          "name": "signedMessage",
          "type": "bytes"
        }
      ],
      "name": "validateSignature",
      "outputs": [],
      "stateMutability": "nonpayable",
      "type": "function"
    },
    {
      "inputs": [
        {
          "internalType": "address",
          "name": "user",
          "type": "address"
        },
        {
          "internalType": "uint256",
          "name": "amount",
          "type": "uint256"
        }
      ],
      "name": "incrementRating",
      "outputs": [],
      "stateMutability": "nonpayable",
      "type": "function"
    },
    {
      "inputs": [
        {
          "internalType": "address",
          "name": "user",
          "type": "address"
        },
        {
          "internalType": "uint256",
          "name": "amount",
          "type": "uint256"
        }
      ],
      "name": "decrementRating",
      "outputs": [],
      "stateMutability": "nonpayable",
      "type": "function"
    },
    {
      "inputs": [
        {
          "internalType": "address",
          "name": "user",
          "type": "address"
        }
      ],
      "name": "getRating",
      "outputs": [
        {
          "internalType": "uint256",
          "name": "",
          "type": "uint256"
        }
      ],
      "stateMutability": "view",
      "type": "function",
      "constant": true
    }
  ],
  "bytecode": "0x60806040523480156200001157600080fd5b506040516200115038038062001150833981810160405281019062000037919062000129565b33600260006101000a81548173ffffffffffffffffffffffffffffffffffffffff021916908373ffffffffffffffffffffffffffffffffffffffff160217905550806000806101000a81548173ffffffffffffffffffffffffffffffffffffffff021916908373ffffffffffffffffffffffffffffffffffffffff160217905550506200015b565b600080fd5b600073ffffffffffffffffffffffffffffffffffffffff82169050919050565b6000620000f182620000c4565b9050919050565b6200010381620000e4565b81146200010f57600080fd5b50565b6000815190506200012381620000f8565b92915050565b600060208284031215620001425762000141620000bf565b5b6000620001528482850162000112565b91505092915050565b610fe5806200016b6000396000f3fe608060405234801561001057600080fd5b506004361061009e5760003560e01c80637f210a4c116100665780637f210a4c1461013357806380fc9c0e146101635780638c3926b4146101935780639bda744e146101b1578063d6c3ccdc146101cf5761009e565b80631f683923146100a3578063383a1e12146100bf5780634b3f536f146100dd5780636b887973146100f95780637be0494214610117575b600080fd5b6100bd60048036038101906100b8919061076f565b6101ed565b005b6100c76102c9565b6040516100d491906107be565b60405180910390f35b6100f760048036038101906100f2919061091f565b6102ef565b005b6101016103c8565b60405161010e91906109a7565b60405180910390f35b610131600480360381019061012c919061076f565b6103ce565b005b61014d600480360381019061014891906109c2565b610428565b60405161015a9190610a0a565b60405180910390f35b61017d60048036038101906101789190610a25565b610448565b60405161018a9190610a61565b60405180910390f35b61019b610491565b6040516101a89190610afb565b60405180910390f35b6101b961051f565b6040516101c69190610a61565b60405180910390f35b6101d7610525565b6040516101e49190610b7c565b60405180910390f35b80600360008473ffffffffffffffffffffffffffffffffffffffff1673ffffffffffffffffffffffffffffffffffffffff16815260200190815260200160002054101561026f576040517f08c379a000000000000000000000000000000000000000000000000000000000815260040161026690610c1a565b60405180910390fd5b80600360008473ffffffffffffffffffffffffffffffffffffffff1673ffffffffffffffffffffffffffffffffffffffff16815260200190815260200160002060008282546102be9190610c69565b925050819055505050565b600460009054906101000a900473ffffffffffffffffffffffffffffffffffffffff1681565b6102f98282610549565b610338576040517f08c379a000000000000000000000000000000000000000000000000000000000815260040161032f90610ce9565b60405180910390fd5b60008054906101000a900473ffffffffffffffffffffffffffffffffffffffff1673ffffffffffffffffffffffffffffffffffffffff166342966c68846040518263ffffffff1660e01b81526004016103919190610a61565b600060405180830381600087803b1580156103ab57600080fd5b505af11580156103bf573d6000803e3d6000fd5b50505050505050565b60075481565b80600360008473ffffffffffffffffffffffffffffffffffffffff1673ffffffffffffffffffffffffffffffffffffffff168152602001908152602001600020600082825461041d9190610d09565b925050819055505050565b60016020528060005260406000206000915054906101000a900460ff1681565b6000600360008373ffffffffffffffffffffffffffffffffffffffff1673ffffffffffffffffffffffffffffffffffffffff168152602001908152602001600020549050919050565b6005805461049e90610d6c565b80601f01602080910402602001604051908101604052809291908181526020018280546104ca90610d6c565b80156105175780601f106104ec57610100808354040283529160200191610517565b820191906000526020600020905b8154815290600101906020018083116104fa57829003601f168201915b505050505081565b60065481565b60008054906101000a900473ffffffffffffffffffffffffffffffffffffffff1681565b60008061057d3085604051602001610562929190610e18565b604051602081830303815290604052805190602001206105c0565b90503373ffffffffffffffffffffffffffffffffffffffff166105a082856105f0565b73ffffffffffffffffffffffffffffffffffffffff161491505092915050565b6000816040516020016105d39190610ebc565b604051602081830303815290604052805190602001209050919050565b6000806000806105ff8561065f565b925092509250600186848484604051600081526020016040526040516106289493929190610efe565b6020604051602081039080840390855afa15801561064a573d6000803e3d6000fd5b50505060206040510351935050505092915050565b600080600060418451146106a8576040517f08c379a000000000000000000000000000000000000000000000000000000000815260040161069f90610f8f565b60405180910390fd5b6020840151915060408401519050606084015160001a92509193909250565b6000604051905090565b600080fd5b600080fd5b600073ffffffffffffffffffffffffffffffffffffffff82169050919050565b6000610706826106db565b9050919050565b610716816106fb565b811461072157600080fd5b50565b6000813590506107338161070d565b92915050565b6000819050919050565b61074c81610739565b811461075757600080fd5b50565b60008135905061076981610743565b92915050565b60008060408385031215610786576107856106d1565b5b600061079485828601610724565b92505060206107a58582860161075a565b9150509250929050565b6107b8816106fb565b82525050565b60006020820190506107d360008301846107af565b92915050565b600080fd5b600080fd5b6000601f19601f8301169050919050565b7f4e487b7100000000000000000000000000000000000000000000000000000000600052604160045260246000fd5b61082c826107e3565b810181811067ffffffffffffffff8211171561084b5761084a6107f4565b5b80604052505050565b600061085e6106c7565b905061086a8282610823565b919050565b600067ffffffffffffffff82111561088a576108896107f4565b5b610893826107e3565b9050602081019050919050565b82818337600083830152505050565b60006108c26108bd8461086f565b610854565b9050828152602081018484840111156108de576108dd6107de565b5b6108e98482856108a0565b509392505050565b600082601f830112610906576109056107d9565b5b81356109168482602086016108af565b91505092915050565b600080600060608486031215610938576109376106d1565b5b60006109468682870161075a565b93505060206109578682870161075a565b925050604084013567ffffffffffffffff811115610978576109776106d6565b5b610984868287016108f1565b9150509250925092565b6000819050919050565b6109a18161098e565b82525050565b60006020820190506109bc6000830184610998565b92915050565b6000602082840312156109d8576109d76106d1565b5b60006109e68482850161075a565b91505092915050565b60008115159050919050565b610a04816109ef565b82525050565b6000602082019050610a1f60008301846109fb565b92915050565b600060208284031215610a3b57610a3a6106d1565b5b6000610a4984828501610724565b91505092915050565b610a5b81610739565b82525050565b6000602082019050610a766000830184610a52565b92915050565b600081519050919050565b600082825260208201905092915050565b60005b83811015610ab6578082015181840152602081019050610a9b565b60008484015250505050565b6000610acd82610a7c565b610ad78185610a87565b9350610ae7818560208601610a98565b610af0816107e3565b840191505092915050565b60006020820190508181036000830152610b158184610ac2565b905092915050565b6000819050919050565b6000610b42610b3d610b38846106db565b610b1d565b6106db565b9050919050565b6000610b5482610b27565b9050919050565b6000610b6682610b49565b9050919050565b610b7681610b5b565b82525050565b6000602082019050610b916000830184610b6d565b92915050565b600082825260208201905092915050565b7f43616e6e6f742064656372656d656e7420726174696e672062656c6f77207a6560008201527f726f2e0000000000000000000000000000000000000000000000000000000000602082015250565b6000610c04602383610b97565b9150610c0f82610ba8565b604082019050919050565b60006020820190508181036000830152610c3381610bf7565b9050919050565b7f4e487b7100000000000000000000000000000000000000000000000000000000600052601160045260246000fd5b6000610c7482610739565b9150610c7f83610739565b9250828203905081811115610c9757610c96610c3a565b5b92915050565b7f5369676e6564206d65737361676520556e6d6174636800000000000000000000600082015250565b6000610cd3601683610b97565b9150610cde82610c9d565b602082019050919050565b60006020820190508181036000830152610d0281610cc6565b9050919050565b6000610d1482610739565b9150610d1f83610739565b9250828201905080821115610d3757610d36610c3a565b5b92915050565b7f4e487b7100000000000000000000000000000000000000000000000000000000600052602260045260246000fd5b60006002820490506001821680610d8457607f821691505b602082108103610d9757610d96610d3d565b5b50919050565b6000610da882610b49565b9050919050565b60008160601b9050919050565b6000610dc782610daf565b9050919050565b6000610dd982610dbc565b9050919050565b610df1610dec82610d9d565b610dce565b82525050565b6000819050919050565b610e12610e0d82610739565b610df7565b82525050565b6000610e248285610de0565b601482019150610e348284610e01565b6020820191508190509392505050565b600081905092915050565b7f19457468657265756d205369676e6564204d6573736167653a0a333200000000600082015250565b6000610e85601c83610e44565b9150610e9082610e4f565b601c82019050919050565b6000819050919050565b610eb6610eb18261098e565b610e9b565b82525050565b6000610ec782610e78565b9150610ed38284610ea5565b60208201915081905092915050565b600060ff82169050919050565b610ef881610ee2565b82525050565b6000608082019050610f136000830187610998565b610f206020830186610eef565b610f2d6040830185610998565b610f3a6060830184610998565b95945050505050565b7f5369676e6564206d657373616765206c656e6774680000000000000000000000600082015250565b6000610f79601583610b97565b9150610f8482610f43565b602082019050919050565b60006020820190508181036000830152610fa881610f6c565b905091905056fea264697066735822122057eaec99c2cf1c2b16064a5a89c4d67d5012bcb2b73c316140de705704afc0a664736f6c63430008150033",
  "immutableReferences": {},
  "source": "// SPDX-License-Identifier: MIT\npragma solidity ^0.8.21;\n\nimport \"@openzeppelin/contracts/utils/cryptography/ECDSA.sol\";\nimport \"./XclusiveRydePass.sol\"; // Import the path to the XclusiveRydePass contract\n\ncontract PassContract {\n    using ECDSA for bytes32;\n\n    XclusiveRydePass public xrpContract; // This will hold the reference to the XclusiveRydePass contract\n    mapping(uint256 => bool) public invalidatedTokens;\n    address private signer; // Address of the signer\n    mapping(address => uint256) private ratings;\n    address public owneri;\n    bytes public signM;\n    uint public tkid;\n    bytes32 public signM2;\n\n\n    constructor(address _xrpAddress) {\n        signer = msg.sender; // The deployer is the signer\n        xrpContract = XclusiveRydePass(_xrpAddress); // Initialize the XRP contract\n    }\n\n   \n\n    function isValidSignedMessage(uint256 amount, bytes memory signedMessage)\n        internal\n        view\n        returns (bool)\n    {\n        bytes32 message = prefixed(keccak256(abi.encodePacked(this, amount)));\n        return recoverSigner(message, signedMessage) == msg.sender;\n    }\n\n    function validateSignature(uint256 tokenId, uint256 amount, bytes memory signedMessage) public{\n        require(isValidSignedMessage(amount, signedMessage),'Signed message Unmatch');\n        xrpContract.burn(tokenId);       \n\n    }\n\n    function splitSignedMessage(bytes memory sig)\n        internal\n        pure\n        returns (uint8 v, bytes32 r, bytes32 s)\n    {\n        require(sig.length == 65,'Signed message length');\n        assembly{\n            r := mload(add(sig, 32))\n            s := mload(add(sig, 64))\n            v := byte(0, mload(add(sig, 96)))\n        }\n        return (v, r, s);\n    }\n\n    function recoverSigner(bytes32 message, bytes memory sig)\n        internal\n        pure\n        returns (address)\n    {\n        (uint8 v, bytes32 r, bytes32 s) = splitSignedMessage(sig);\n        return ecrecover(message, v, r, s);\n    }\n\n    function prefixed(bytes32 hash) internal pure returns (bytes32){\n        return keccak256(abi.encodePacked(\"\\x19Ethereum Signed Message:\\n32\", hash));\n    }\n\n    // Function to increment a user's rating\n    function incrementRating(address user, uint256 amount) public {\n        ratings[user] += amount;\n    }\n\n    // Function to decrement a user's rating\n    function decrementRating(address user, uint256 amount) public  {\n        require(ratings[user] >= amount, \"Cannot decrement rating below zero.\");\n        ratings[user] -= amount;\n    }\n\n    // Function to get a user's rating\n    function getRating(address user) public view returns (uint256) {\n        return ratings[user];\n    }\n}\n",
  "sourcePath": "/Users/atishs/Desktop/blockchain/Project/demo/decentralized_cab_booking/DRSA-contract/contracts/PassContract.sol",
  "compiler": {
    "name": "solc",
    "version": "0.8.21+commit.d9974bed.Emscripten.clang"
  },
  "schemaVersion": "3.4.16",
  "updatedAt": "2023-12-26T18:50:41.448Z",
  "networkType": "ethereum",
  "devdoc": {
    "kind": "dev",
    "methods": {},
    "version": 1
  },
  "userdoc": {
    "kind": "user",
    "methods": {},
    "version": 1
  }
}